:0400000052EF04F0C7
:08000800046ED8CF05F0E0CF33
:1000100006F00001E9CF0CF0EACF07F0E1CF08F0DD
:10002000E2CF09F0D9CF0AF0DACF0BF0F3CF12F01C
:10003000F4CF13F0FACF14F0F5CF15F0F6CF16F099
:10004000F7CF17F000C00EF001C00FF002C010F0A3
:1000500003C011F09DA230EF00F09EB25DEF00F002
:100060009DA636EF00F09EB6CFEF01F00EC000F077
:100070000FC001F010C002F011C003F00CC0E9FF86
:1000800007C0EAFF078E08C0E1FF09C0E2FF0AC00F
:10009000D9FF0BC0DAFF12C0F3FF13C0F4FF14C086
:1000A000FAFF15C0F5FF16C0F6FF17C0F7FF0450A2
:1000B00006C0E0FF05C0D8FF100094887D9182B88B
:1000C0007D817DB105D068A103D04E2AD8B44F2AD6
:1000D00068917DB16881948A7D9382BA7D837DB376
:1000E00005D068A303D0502AD8B4512A68937DB3B1
:1000F00068836281662BD8B4672B6651F40804E1EB
:10010000672D02D0628352D06651E8084FE16751F3
:1001100003084CE141C01DF040C01CF03FC01BF083
:100120003EC01AF045C021F044C020F043C01FF08B
:1001300042C01EF05FC03BF05EC03AF049C025F0FF
:1001400048C024F047C023F046C022F04DC029F03B
:100150004CC028F04BC027F04AC026F061C03DF0EB
:1001600060C03CF04FC02BF04EC02AF051C02DF0C3
:1001700050C02CF02A502E262B502F22000E302259
:1001800031222C5032262D503322000E34223522BB
:10019000010E3626D8B0372AD8B4382AD8B4392A2E
:1001A0004F6A4E6A516A506A676B666B9E9236EF71
:1001B00000F082510E0A03E0010A01E00CD0316A1E
:1001C000306A2F6A2E6A356A346A336A326A396A4B
:1001D000386A376A366A0FEF02F0640E636F805137
:1001E0002DE0010A3AE0030A3DE0010A4BE0070A6C
:1001F0004EE0010A5BE0030A5EE0010A6BE00F0AD1
:10020000D8B46DD0010AD8B46FD0030AD8B471D075
:10021000010AD8B47DD0070AD8B47FD0010AD8B477
:100220008BD0030AD8B48DD0010AD8B499D01F0A54
:10023000D8B49BD0010AD8B49DD0A1D01BC065F022
:100240001AC064F01DC081F01CC082F01DC003F014
:100250001CC001F01DC002F095D064C001F065C063
:1002600002F090D062851FC065F01EC064F021C00E
:1002700081F020C082F021C003F020C001F021C035
:1002800002F080D064C001F065C002F07BD023C0D2
:1002900065F022C064F025C081F024C082F025C042
:1002A00003F024C001F025C002F06CD064C001F05E
:1002B00065C002F067D027C065F026C064F029C091
:1002C00081F028C082F029C003F028C001F029C0C5
:1002D00002F058D064C001F065C002F053D02AC0CB
:1002E00001F02BC002F04ED02CC001F02DC002F066
:1002F00049D02FC065F02EC064F031C081F030C00D
:1003000082F031C003F030C001F031C002F03AD0C9
:1003100064C001F065C002F035D033C065F032C072
:1003200064F035C081F034C082F035C003F034C0D1
:1003300001F035C002F026D064C001F065C002F0C3
:1003400021D037C065F036C064F039C081F038C0C4
:1003500082F039C003F038C001F039C002F012D089
:1003600064C001F065C002F00DD03AC001F03BC09E
:1003700002F008D03CC001F03DC002F003D080C0C4
:1003800001F0026A19EF02F0C95080C0C9FFC688A7
:100390009E96C7B0FED7016AC5AC012A1200C7BA43
:1003A00004D0696BC7A401D0698F69C07DF0695121
:1003B0007F0804E0693D01D001D0692B7D518008A0
:1003C0002EE37D51800803E1C9CF7EF006D0C69CA4
:1003D000C7A0FED7C950C6887E6F7D2D04D0D890A7
:1003E0007E356D6F1CD07D51010819E27D5180086A
:1003F00016E07D51020803E17EC06CF010D07D5103
:1004000003080DE1D8906D317F6F6CC081F07EC024
:1004100080F0826F6CC084F07EC083F0CAD67D51BC
:100420007F0813E26DB10DD0D8906D317F6F806F72
:10043000D4D602C06BF001C06AF06BC080F0A4DFBC
:1004400003D06AC080F0A0DF6D2B9E9636EF00F0DF
:10045000232064637377635F6D6F64756C655F768B
:100460006F6C746167655F63757272656E745F63EC
:100470006F756E7465722025730D0A23200031306C
:100480002D4170722D3234005744542054494D454B
:100490004F5554004D434C522046524F4D20534C23
:1004A000454550004D434C522046524F4D20525529
:1004B0004E004E4F524D414C20504F574552205503
:1004C000500042524F574E4F5554205245535441BD
:1004D000525400005744542046524F4D20534C452F
:1004E00045500000524553455420494E53545255EF
:1004F0004354494F4E00554E4B4E4F574E2100002E
:10050000948E000E82AE010E006ED8900034726F91
:10051000948C000E82AC010E7211016E05EF03F097
:10052000080E016E00008B929492000079378B9038
:10053000D8B09480D8A09490948282A2FED7012E45
:10054000F1D700008B92949200009480000000008C
:10055000948282A2FED7016A000082B001808B9251
:1005600094928B90949012009480000094820000EA
:100570008B90949000008B929492130E006E002E3C
:10058000FED700D073C079F0CBDF74C079F0C8DF3C
:1005900076C079F0C5DF75C079F0C2DF94900000B5
:1005A000948282A2FED7000000D000009480000058
:1005B000120072C073F0746B766B100E756FD4DF1F
:1005C00072C073F0010E746F7669C40E756FCCDF64
:1005D0001200BA6ABB6AC290000E7E6EC190C192D0
:1005E000C194C1967F6ED1803F0E926E300E776EB1
:1005F000F19E700E936E786AF30E946E000E0609EB
:10060000CA6EF90ECB6E9D827BD7D8900134360F1F
:10061000C86E800E726FCDDF9A0E726FCADFA7EFC1
:1006200004F0EA6A720EE96EEF500EE0050E016EFC
:10063000006A002EFED7012EFBD72E0E006E002E74
:10064000FED700D0EF2EF2D712000900F6CF73F0DC
:10065000F7CF74F0F5509EA8FED7AD6E73C0F6FFCD
:1006600074C0F7FF722FF1D712000900F5520DE0A8
:10067000F6CF72F0F7CF73F0F5509EA8FED7AD6EAF
:1006800072C0F6FF73C0F7FFF0D71200080E7B6F41
:1006900000C07CF094800000948282A2FED782B0D9
:1006A000D88082A0D8900136000094928B927B2F44
:1006B000F1D7948000008B907C51D8A494900000D6
:1006C000948282A2FED700008B92949200008B90BD
:1006D0009490120094800000948200008B9094907B
:1006E00000008B929492130E006E002EFED700D065
:1006F00072C079F015DF73C079F012DF94800000CA
:100700009482000082A2FED78B90949000008B927E
:100710009492130E006E002EFED700D07251010984
:10072000786F796FFDDE010E006EB0DF01C078F0EA
:10073000010E006EABDF01C079F0006AA7DF776BB6
:1007400078C076F079C075F001C074F09490000024
:10075000948282A2FED7000000D0000094800000A6
:1007600074C000F075C001F076C002F077C003F0ED
:10077000120094800000948200008B9094900000FE
:100780008B929492130E006E002EFED700D072C092
:1007900079F0C6DE73C079F0C3DE948000009482E5
:1007A000000082A2FED78B90949000008B929492CE
:1007B000130E006E002EFED700D072510109766F25
:1007C000796FAEDE010E006E61DF01C076F0006A67
:1007D0005DDF76C075F001C074F0949000009482E3
:1007E00082A2FED7000000D000009480000074C0F8
:1007F00001F075C002F012006293800E726F050E58
:10080000736F68DF03C041F002C040F001C03FF0E9
:1008100000C03EF0800E726F040E736F5BDF03C08A
:1008200045F002C044F001C043F000C042F09A0E0F
:10083000726F050E736F4EDF03C049F002C048F0BF
:1008400001C047F000C046F09A0E726F040E736F3D
:1008500041DF03C04DF002C04CF001C04BF000C0BE
:100860004AF0800E726F060E736F83DF02C05FF076
:1008700001C05EF09A0E726F060E736F7ADF02C0CF
:1008800061F001C060F045804D801BEF05F0629182
:10089000635303E194968B9603D094968B866307FB
:1008A0001EEF05F0F86AD09E078E938C9388C86A75
:1008B000360EC66EC580C58E196AB886A00EAF6E9C
:1008C000010EB06EA60EAC6E900EAB6E6F6B6E6BC3
:1008D000000E7E6EC190C192C194C1967F6E6C6A0B
:1008E0006B6A6D6A6891689308D04A401A00048068
:1008F000FFFF0000054069000000000EF86E080EC2
:10090000F76EEA0EF66E0900F550006E000A13E06D
:100910000900F550016EE8BE05D03F0BEA6E0900F4
:10092000F5CFE9FF01BC090001AC0900F5CFEEFFEE
:10093000004EE9D7F9D7F86AD0500F0BD0A8000EB7
:10094000D080D082D088D886D888706F42D6716B1C
:10095000715104080DE3040094968B86C80E726FE3
:1009600060DE94968B96C80E726F5BDE712BF0D7AB
:10097000500EF66E040EF76E270E726F66DE7E0E58
:10098000F66E040EF76E71DE790EF66E040EF76EDB
:10099000040E726F5ADE7051070A0DE00C0A11E066
:1009A000040A15E0030A19E0020A1DE00D0A21E01D
:1009B000030A25E02AD0880EF66E040EF76E55DE87
:1009C00029D0940EF66E040EF76E4FDE23D0A40EDF
:1009D000F66E040EF76E49DE1DD0B20EF66E040EF2
:1009E000F76E43DE17D0C20EF66E040EF76E3DDED4
:1009F00011D0D40EF66E040EF76E37DE0BD0E40E77
:100A0000F66E040EF76E31DE05D0F60EF66E040EAD
:100A1000F76E2BDE0D0E9EA8FED7AD6E0A0E9EA8B9
:100A2000FED7AD6EF40E636FC00EF2129D86040009
:100A300062A301D0E1D662A101D029D7F8D7030083
:0200000400F00A
:0400000000004000BC
:020000040030CA
:0E0000000002070F0000810003C003E0034070
:00000001FF
;PIC18F14K22
;CRC=DD08  CREATED="10-Apr-24 12:54"
