:0400000037EF06F0E0
:08000800046ED8CF05F0E0CF33
:1000100006F00001E9CF0CF0EACF07F0E1CF08F0DD
:10002000E2CF09F0D9CF0AF0DACF0BF0F3CF12F01C
:10003000F4CF13F0FACF14F0F5CF15F0F6CF16F099
:10004000F7CF17F000C00EF001C00FF002C010F0A3
:1000500003C011F09DA230EF00F09EB25DEF00F002
:100060009DA636EF00F09EB6D2EF01F00EC000F074
:100070000FC001F010C002F011C003F00CC0E9FF86
:1000800007C0EAFF078E08C0E1FF09C0E2FF0AC00F
:10009000D9FF0BC0DAFF12C0F3FF13C0F4FF14C086
:1000A000FAFF15C0F5FF16C0F6FF17C0F7FF0450A2
:1000B00006C0E0FF05C0D8FF100094888A9182B87E
:1000C0008A818AB105D068A103D04E2AD8B44F2ABC
:1000D00068918AB16881948A8A9382BA8A838AB342
:1000E00005D068A303D0502AD8B4512A68938AB3A4
:1000F00068836281662BD8B4672B6651F40804E1EB
:10010000672D02D0628354D06651E80851E16751EF
:1001100003084EE194948B8441C01DF040C01CF054
:100120003FC01BF03EC01AF045C021F044C020F093
:1001300043C01FF042C01EF05FC03BF05EC03AF00B
:1001400049C025F048C024F047C023F046C022F043
:100150004DC029F04CC028F04BC027F04AC026F013
:1001600061C03DF060C03CF04FC02BF04EC02AF0A3
:1001700051C02DF050C02CF02A502E262B502F228B
:10018000000E302231222C5032262D503322000E08
:1001900034223522010E3626D8B0372AD8B4382A70
:1001A000D8B4392A4F6A4E6A516A506A676B666BD7
:1001B00094948B949E9236EF00F08E510E0A03E0D9
:1001C000010A01E00CD0316A306A2F6A2E6A356A62
:1001D000346A336A326A396A386A376A366A0FEFC4
:1001E00002F0640E636F8D512DE0010A3AE0030ABC
:1001F0003DE0010A4AE0070A4DE0010A5AE0030A1D
:100200005DE0010A6AE00F0AD8B46CD0010AD8B4E4
:100210006ED0030AD8B470D0010AD8B47CD0070AD3
:10022000D8B47ED0010AD8B48AD0030AD8B48CD00E
:10023000010AD8B498D01F0AD8B49AD0010AD8B409
:100240009CD0A0D01BC065F01AC064F01DC08EF019
:100250001CC08FF01DC003F01CC001F01DC002F0D7
:1002600094D064C001F065C002F08FD01FC065F06B
:100270001EC064F021C08EF020C08FF021C003F0BA
:1002800020C001F021C002F080D064C001F065C040
:1002900002F07BD01BC065F01AC064F025C08EF060
:1002A00024C08FF025C003F024C001F025C002F067
:1002B0006CD064C001F065C002F067D027C065F063
:1002C00026C064F029C08EF028C08FF029C003F04A
:1002D00028C001F029C002F058D064C001F065C008
:1002E00002F053D02AC001F02BC002F04ED02CC037
:1002F00001F02DC002F049D02FC065F02EC064F08F
:1003000031C08EF030C08FF031C003F030C001F04A
:1003100031C002F03AD064C001F065C002F035D0BF
:1003200033C065F032C064F035C08EF034C08FF059
:1003300035C003F034C001F035C002F026D064C0EF
:1003400001F065C002F021D037C065F036C064F01E
:1003500039C08EF038C08FF039C003F038C001F0DA
:1003600039C002F012D064C001F065C002F00DD0B7
:100370003AC001F03BC002F008D03CC001F03DC0E3
:1003800002F003D08DC001F0026A19EF02F0C950EB
:100390008DC0C9FFC6889E96C7B0FED7016AC5AC9E
:1003A000012A1200C7BA04D0696BC7A401D0698FB3
:1003B00069C08AF069517F0804E0693D01D001D02D
:1003C000692B8A5180082BE38A51800803E1C9CF49
:1003D0008BF006D0C69CC7A0FED7C950C6888B6FCD
:1003E0008A2D03D08BC06DF01AD08A51010817E214
:1003F0008A51800814E08A51020803E18BC06CF036
:100400000ED08A5103080BE16CC08DF08BC08CF0CC
:100410006DC08EF06CC090F08BC08FF0CED68A513C
:100420007F0817E26DB10FD0D8906D318C6F8D6F52
:10043000D8D602C06BF001C06AF06BC08CF06BC004
:100440008DF0A5DF05D06AC08CF06AC08DF09FDF0B
:100450006D2B9E9636EF00F0232064637377635F05
:100460006D6F64756C655F766F6C746167655F63F3
:10047000757272656E745F636F756E746572202538
:10048000730D0A0031302D4A616E2D323200232067
:100490004449502053574954434845533A20256412
:1004A0000D0A00002320413A2030782530386C783E
:1004B000202F2030782530386C78202F2030782578
:1004C00030346C750D0A00002320423A2030782524
:1004D00030386C78202F2030782530386C78202FF9
:1004E0002030782530346C750D0A000023206375A8
:1004F0007272656E742E636F756E745F615F6C618E
:1005000073745F7365636F6E643D256C750D0A00CF
:10051000232063757272656E742E636F756E745FDF
:10052000625F6C6173745F7365636F6E643D256CAD
:10053000750D0A00232063757272656E742E636FE9
:10054000756E745F615F6C6F6E673D256C750D0A2B
:100550000000232063757272656E742E636F756E72
:10056000745F625F6C6F6E673D256C750D0A0000ED
:10057000232063757272656E742E636F756E745F7F
:100580007365636F6E64735F6C6F6E673D256C752A
:100590000D0A00002320696E707574285049435F6E
:1005A000414444525F4D5342293D25750D0A0000D8
:1005B0002320696E707574285049435F414444524A
:1005C0005F4C5342293D25750D0A0000BA6ABB6A8B
:1005D000C290000E7E6EC190C192C194C1967F6E92
:1005E0003F0E926E300E776EF19E700E936E786AAB
:1005F000F30E946E000E0609CA6EF90ECB6E9D8244
:1006000083EF06F0EA6A720EE96EEF500EE0050E17
:10061000016E006A002EFED7012EFBD72E0E006E53
:10062000002EFED700D0EF2EF2D712000900F6CF31
:1006300073F0F7CF74F0F5509EA8FED7AD6E73C07F
:10064000F6FF74C0F7FF722FF1D712000900F552C0
:100650000DE0F6CF71F0F7CF72F0F5509EA8FED7FF
:10066000AD6E71C0F6FF72C0F7FFF0D7A7EF06F0CE
:10067000080E016E00008B929492000078378B90E8
:10068000D8B09480D8A09490948282A2FED7012EF4
:10069000F1D700008B92949200009480000000003B
:1006A000948282A2FED7016A000082B001808B9200
:1006B00094928B9094901200080E7A6F00C07BF099
:1006C00094800000948282A2FED782B0D88082A05B
:1006D000D8900136000094928B927A2FF1D79480B3
:1006E00000008B907B51D8A494900000948282A249
:1006F000FED700008B92949200008B909490120091
:1007000094800000948200008B90949000008B9263
:100710009492130E006E002EFED700D071C078F0B8
:10072000A7DF72C078F0A4DF9480000094820000FC
:1007300082A2FED78B90949000008B929492130E1D
:10074000006E002EFED700D071510109776F786FCF
:100750008FDF010E006EB0DF01C077F0010E006E7A
:10076000ABDF01C078F0006AA7DF766B77C075F069
:1007700078C074F001C073F094900000948282A25B
:10078000FED7000000D000009480000073C000F08D
:1007900074C001F075C002F076C003F012009480BE
:1007A0000000948200008B90949000008B929492B1
:1007B000130E006E002EFED700D071C078F058DF07
:1007C00072C078F055DF948000009482000082A20D
:1007D000FED78B90949000008B929492130E006E33
:1007E000002EFED700D071510109756F786F40DF80
:1007F000010E006E61DF01C075F0006A5DDF75C03B
:1008000074F001C073F094900000948282A2FED72D
:10081000000000D000009480000073C001F074C09C
:1008200002F012006293800E716F050E726F68DF26
:1008300003C041F002C040F001C03FF000C03EF0F4
:10084000800E716F040E726F5BDF03C045F002C053
:1008500044F001C043F000C042F09A0E716F050EE3
:10086000726F4EDF03C049F002C048F001C047F08C
:1008700000C046F09A0E716F040E726F41DF03C024
:100880004DF002C04CF001C04BF000C04AF0800EA9
:10089000716F060E726F83DF02C05FF001C05EF001
:1008A0009A0E716F060E726F7ADF02C061F001C09E
:1008B00060F0BFEF06F06291635303E194968B966C
:1008C00003D094968B866307C2EF06F09EAAFED7EC
:1008D000ABCF19F0AECF01F019A202D0AB98AB8824
:1008E000C5EF06F0948E000E82AE010E006ED89019
:1008F0000034716F948C000E82AC010E7111016E88
:10090000C6EF06F07951016A785D03E278C000F025
:100910000CD0006A080E7A6F783700367951005C87
:10092000D8B0006E01367A2FF7D71200200E73A9C7
:10093000300E746F72C000F072AF08D0001E002A33
:1009400000C072F02D0E746F738F7381015072C0EE
:1009500078F0640E796FD6DF00C072F0300E01249B
:10096000756F72C078F00A0E796FCCDF300E0024FC
:10097000776F300E0124766F74C000F0300E755D15
:1009800004E0738373BF738512D074C075F0200EBA
:10099000746F300E765D04E0738173BF738307D08C
:1009A000D8A4738104E175C076F0200E756F73B51D
:1009B00005D073B307D073B109D00CD074519EA881
:1009C000FED7AD6E75519EA8FED7AD6E76519EA82E
:1009D000FED7AD6E77519EA8FED7AD6ED4EF06F070
:1009E00072BF10D00F0E006E713900160A0E005C37
:1009F00003E2300E002602D07251002600509EA85D
:100A0000FED7AD6E0F0E71170A0E715D02E2300E49
:100A100002D0729F7251712771519EA8FED7AD6EA0
:100A20001200EACF79F0E9CF78F07239F009746FEB
:100A30007427E20F756F320F776F72510F0B7527A6
:100A400075277727E90F766F7627762771390F0B91
:100A50007627772776377737771F773771510F0BE0
:100A600077277437070E736F0A0E76077727FDE333
:100A700075077627FDE374077527FDE37307742771
:100A8000FDE3EA6A730EE96E070E7815789DE92694
:100A9000000EEA22E950770803E1EA5201E1788D7D
:100AA000EF50006E08E178BD06D078B90CD078B769
:100AB00002D0200E03D078877899300E002600509F
:100AC0009EA8FED7AD6EEE5078ADE4D71200D8B236
:100AD00003D0EA6A850EE96E006A016A026A036A57
:100AE000856B866B876B886B8451831182118111B2
:100AF0002CE0200E896FD8907D377E377F37803786
:100B000085378637873788378451885D08E1835178
:100B1000875D05E18251865D02E18151855D0FE3CC
:100B20008151855F8251D8A0823D865F8351D8A0D4
:100B3000833D875F8451D8A0843D885FD88000368C
:100B4000013602360336892FD6D785C0EFFF86C01F
:100B5000ECFF87C0ECFF88C0ECFF1200E950756F16
:100B60003B0E7C6F9A0E7B6FCA0E7A6F796B0A0E02
:100B7000776FD882EA6A710EE96E74C080F073C034
:100B80007FF072C07EF071C07DF07CC084F07BC0CD
:100B900083F07AC082F079C081F099DF0150005271
:100BA0000FE17751010A0CE075510BE00F0B775DF7
:100BB00001E00DE275BF0BD075BD03D0200E02D051
:100BC000756B300E002600509EA8FED7AD6ED892F1
:100BD0007CC080F07BC07FF07AC07EF079C07DF071
:100BE000846B836B826B0A0E816F71DF03C07CF0B4
:100BF00002C07BF001C07AF000C079F0772FB9D73E
:100C00001200015072C078F0640E796F7BDE00C074
:100C100072F00150300E07E173A30DD073B70BD003
:100C200073B9200E03D07397739973810126015015
:100C30009EA8FED7AD6E72C078F00A0E796F62DEA4
:100C400000C072F00150300E06E173B709D073A1F5
:100C500007D073B9200E012601509EA8FED7AD6EB5
:100C6000300E722772519EA8FED7AD6E1200F86A40
:100C7000D09E078E938C9388340EC86E360EC66E47
:100C8000C580C58E196AB886A00EAF6E010EB06E13
:100C9000A60EAC6E900EAB6E6F6B6E6B000E7E6E22
:100CA000C190C192C194C1967F6E6C6A6B6A6D6A85
:100CB0006891689308D04A401A000480FFFF000042
:100CC000054069000000000EF86E0C0EF76EB60EBF
:100CD000F66E0900F550006E000A13E00900F550A9
:100CE000016EE8BE05D03F0BEA6E0900F5CFE9FFC3
:100CF00001BC090001AC0900F5CFEEFF004EE9D7B9
:100D0000F9D7F86A63D4706B705104080DE30400DE
:100D100094968B86C80E726F75DC94968B96C80E6F
:100D2000726F70DC702BF0D7040E716FFA0E726F59
:100D300069DC712FFBD7580EF66E040EF76E270E86
:100D4000726F74DC840EF66E040EF76E7FD40D0E97
:100D50009EA8FED7AD6E0A0E9EA8FED7AD6E040EFD
:100D6000716FFA0E726F4EDC712FFBD7F40E636F4A
:100D7000C00EF2129D86040062A301D053D562A179
:100D800001D099D59EAA67D1A1D5ACD501C071F08B
:100D90008E0EF66E040EF76E100E726F47DC71C089
:100DA00072F0180E736FC2D50D0E9EA8FED7AD6EF1
:100DB0000A0E9EA8FED7AD6EA40EF66E040EF76E58
:100DC000070E726F33DC1DC071F0570E726F08DEB4
:100DD0001CC071F0570E726F03DE1BC071F0570E0E
:100DE000726FFEDD1AC071F0570E726FF9DDB00E32
:100DF000F66E040EF76E050E726F18DC21C071F0EE
:100E0000570E726FEDDD20C071F0570E726FE8DD86
:100E10001FC071F0570E726FE3DD1EC071F0570EE8
:100E2000726FDEDDBA0EF66E040EF76E050E726F8F
:100E300016EC03F0090EE96E3BC072F03AC071F097
:100E4000F0DD0D0E9EA8FED7AD6E0A0E9EA8FED751
:100E5000AD6EC80EF66E040EF76E070E726F16ECCE
:100E600003F025C071F0570E726FBADD24C071F027
:100E7000570E726FB5DD23C071F0570E726FB0DD83
:100E800022C071F0570E726FABDDD40EF66E040EF9
:100E9000F76E050E726F16EC03F029C071F0570E55
:100EA000726F9EDD28C071F0570E726F99DD27C0FA
:100EB00071F0570E726F94DD26C071F0570E726F8D
:100EC0008FDDDE0EF66E040EF76E050E726F16ECF9
:100ED00003F0090EE96E3DC072F03CC071F0A1DD77
:100EE0000D0E9EA8FED7AD6E0A0E9EA8FED7AD6E63
:100EF000EC0EF66E040EF76E1E0E726F16EC03F01B
:100F0000100EE96E2BC072F02AC071F08ADD0D0E52
:100F10009EA8FED7AD6E0A0E9EA8FED7AD6E100E2F
:100F2000F66E050EF76E1E0E726F16EC03F0100EC5
:100F3000E96E2DC072F02CC071F073DD0D0E9EA80D
:100F4000FED7AD6E0A0E9EA8FED7AD6E340EF66EBD
:100F5000050EF76E170E726F16EC03F0410EE96E78
:100F600031C074F030C073F02FC072F02EC071F039
:100F7000F5DD0D0E9EA8FED7AD6E0A0E9EA8FED71B
:100F8000AD6E520EF66E050EF76E170E726F16EC02
:100F900003F0410EE96E35C074F034C073F033C015
:100FA00072F032C071F0DADD0D0E9EA8FED7AD6E84
:100FB0000A0E9EA8FED7AD6E700EF66E050EF76E89
:100FC0001D0E726F16EC03F0410EE96E39C074F01D
:100FD00038C073F037C072F036C071F0BFDD0D0E4F
:100FE0009EA8FED7AD6E0A0E9EA8FED7AD6E948C5D
:100FF000000E82BC010E716F940EF66E050EF76E38
:10100000160E726F16EC03F071C072F01B0E736F48
:10101000F8DD0D0E9EA8FED7AD6E0A0E9EA8FED777
:10102000AD6E948E000E82BE010E716FB00EF66E24
:10103000050EF76E160E726F16EC03F071C072F0AB
:101040001B0E736FDEDD0D0E9EA8FED7AD6E0A0E71
:0A1050009EA8FED7AD6E8FD6FFD725
:0200000400F00A
:0400000000004000BC
:020000040030CA
:0E000000002219180000090003C003E00340AD
:00000001FF
;PIC18F14K22
;CRC=390E  CREATED="10-Jan-22 16:40"
