:0400000032EF04F0E7
:08000800046ED8CF05F0E0CF33
:1000100006F00001E9CF0CF0EACF07F0E1CF08F0DD
:10002000E2CF09F0D9CF0AF0DACF0BF0F3CF12F01C
:10003000F4CF13F0FACF14F0F5CF15F0F6CF16F099
:10004000F7CF17F000C00EF001C00FF002C010F0A3
:1000500003C011F09DA230EF00F09EB264EF00F0FB
:100060000EC000F00FC001F010C002F011C003F08C
:100070000CC0E9FF07C0EAFF078E08C0E1FF09C016
:10008000E2FF0AC0D9FF0BC0DAFF12C0F3FF13C0B2
:10009000F4FF14C0FAFF15C0F5FF16C0F6FF17C035
:1000A000F7FF045006C0E0FF05C0D8FF1000F76A54
:1000B000BE0FF66E000EF7220900F5501200372D24
:1000C0004A616E2D323200002A809E9230EF00F09D
:1000D000232064637377635F6D6F64756C655F760F
:1000E0006F6C746167655F63757272656E745F6370
:1000F0006F756E7465720D0A00002320696E61329F
:1001000032385F696E69742830782530327829205A
:100110002E2E2E200000646F6E65210D0A00232014
:10012000696E613232385F696E69742830782530C3
:10013000327829202E2E2E200000646F6E65210D4E
:100140000A002320696E613232385F726561643162
:1001500036283078253032782C494E413232385F9B
:100160005245475F4D46475F4944293D3078253029
:10017000346C780D0A002320696E613232385F7268
:100180006561643136283078253032782C494E410B
:100190003232385F5245475F4D46475F4944293DFB
:1001A00030782530346C780D0A002320696E613276
:1001B00032385F72656164313628307825303278A4
:1001C0002C494E413232385F5245475F44494554CD
:1001D000454D50293D30782530346C780D0A0000AB
:1001E0002320696E613232385F726561643136286E
:1001F0003078253032782C494E413232385F5245C2
:10020000475F44494554454D50293D3078253034A9
:100210006C780D0A00002320696E613232385F72FB
:100220006561643136283078253032782C494E416A
:100230003232385F5245475F56425553293D307838
:100240002530386C780D0A002320696E613232380F
:100250005F726561643136283078253032782C49F8
:100260004E413232385F5245475F56425553293D21
:1002700030782530386C780D0A00BA6ABB6AC290B3
:10028000000E7E6EC190C192C194C1967F6E3F0EEA
:10029000926E300E776EF19E700E936E786AF30E4A
:1002A000946EEA6A320EE96E000E01DF0A00090060
:1002B000F550EE6E0009FBE1300E325C0A0DF3CF13
:1002C00028F0300E335C282635504A080FE13650AE
:1002D000410803E1010E276E08D037504E0803E1B4
:1002E000060E276E02D0070E276E37D03550410814
:1002F00009E13650500803E1040E276E02D0080EC3
:10030000276E2BD035504D0809E13750520803E1D4
:10031000030E276E02D0050E276E1FD035504608FB
:1003200003E1020E276E19D03550530803E1090E80
:10033000276E13D035504F0803E10A0E276E0DD0FB
:1003400035504E0803E10B0E276E07D03550440898
:1003500003E10C0E276E01D02768300E395C0A0DC0
:10036000F3CF26F0300E3A5C2626000E0609CA6E40
:10037000F90ECB6E9D8261EF04F03B6A3AC03DF00E
:100380003950D8B43A0639063C6E3C5202E13D522F
:1003900030E038C003F03750E96E03C0EAFF365052
:1003A000036E3550352AD8B4362A3E6E03C03FF06E
:1003B000F2CF40F0F29E3EC0A9FFA69CA69EA6806A
:1003C000A85040BEF28EEF6E38C003F03750E96E91
:1003D00003C0EAFFEFCF3CF03BC03EF03CC03FF033
:1003E0003E503F18016E01C03BF0372AD8B4382A7E
:1003F000C5D73BC001F088EF02F03C6A3BC03EF03D
:100400003A50D8B43B063A063D6E3D5202E13E52A8
:100410003CE039C003F03850E96E03C0EAFFEFCF8B
:100420003DF03CC03EF03DC03FF03E503F18016EF5
:1004300001C03CF03750036E3650362AD8B4372A04
:100440003D6E03C03EF03950036E3850382AD8B4A0
:10045000392AE96E03C0EAFFEFCF3FF0F250006E99
:10046000F29E3DC0A9FF3FC0A8FFA69CA69EA68401
:100470000F01550EA76EAA0EA76EA682A6B2FED7D2
:10048000A6940050F2120001B9D73CC001F055EF1C
:1004900002F01A0E346E376A020E366E396A34C0B4
:1004A00038F03B6A050E3A6EA8D701C033F0F2501F
:1004B000006EF29EA96A33C0A8FFA69CA69EA684E1
:1004C0000F01550EA76EAA0EA76EA682A6B2FED782
:1004D000A6940050F21200011200010E296E960E31
:1004E0002B6E500E1A6E260E1C6E900E1B6E1E6A20
:1004F000050E1D6ECEDF12001A0E336E366A020E26
:10050000356E386A33C037F03A6A050E396E35D722
:1005100001C032F0F2CF33F0F29EA96AA69CA69EEB
:10052000A680A85033BEF28E325C01E0D6DF62EFC7
:1005300004F0EA6A330EE96EEF500EE0050E016E2C
:10054000006A002EFED7012EFBD72E0E006E002E65
:10055000FED700D0EF2EF2D712000900F5520DE0C1
:10056000F6CF32F0F7CF33F0F5509EA8FED7AD6E40
:1005700032C0F6FF33C0F7FFF0D712002A902B529B
:1005800003E194968B9603D094968B862B06233C9E
:1005900003D0243C01D003D0232AD8B4242A2D2A06
:1005A000D8B42E2A2D50E80812E12E5003080FE18E
:1005B0002E6A2D6A2C2A2C503C0809E12C6A213C19
:1005C00003D0223C01D003D0212AD8B4222A91EFB3
:1005D00004F09EAAFED7ABCF19F0AECF01F019A25E
:1005E00002D0AB98AB8894EF04F00900F6CF37F057
:1005F000F7CF38F0F5509EA8FED7AD6E37C0F6FFA6
:1006000038C0F7FF362EF1D7120037BE10D00F0ECC
:10061000006E363800160A0E005C03E2300E00262B
:1006200002D03750002600509EA8FED7AD6E0F0EA8
:1006300036160A0E365C02E2300E02D0379E375074
:10064000362636509EA8FED7AD6E1200080E016EFB
:1006500000008B929492000039368B90D8B0948031
:10066000D8A09490948282A2FED7012EF1D70000E8
:100670008B9294920000948000000000948282A2E9
:10068000FED7016A000082B001808B9294928B9019
:100690009490120094800000948200008B909490BB
:1006A00000008B929492130E006E002EFED700D0A5
:1006B00033C039F0CBDF34C039F0C8DF36C037F093
:1006C00036C039F0C3DF35C037F035C039F0BEDF92
:1006D00094900000948282A2FED7000000D0000017
:1006E000948000007BEF03F032C033F0346A800E58
:1006F000366E356ACFD71200080E3B6E00C03CF054
:1007000094800000948282A2FED782B0D88082A01A
:10071000D8900136000094928B923B2EF1D79480B2
:1007200000008B903C50D8A494900000948282A248
:10073000FED700008B92949200008B909490120050
:1007400094800000948200008B90949000008B9223
:100750009492130E006E002EFED700D032C039F0F6
:1007600075DF33C039F072DF94800000948200009E
:1007700082A2FED78B90949000008B929492130EDD
:10078000006E002EFED700D032500109366E396E51
:100790005DDF010E006EB0DF01C036F0006AACDF35
:1007A00036C035F001C034F094900000948282A2EB
:1007B000FED7000000D000009480000034C001F09B
:1007C00035C002F0120094800000948200008B90EB
:1007D000949000008B929492130E006E002EFED720
:1007E00000D032C039F032DF33C039F02FDF9480CF
:1007F00000009482000082A2FED78B9094900000AB
:100800008B929492130E006E002EFED700D03250C1
:100810000109386E396E1ADF010E006E6DDF01C0FE
:1008200038F0010E006E68DF01C039F0006A64DF45
:10083000376A38C036F039C035F001C034F09490D2
:100840000000948282A2FED7000000D000009480B5
:10085000000034C000F035C001F036C002F037C0EF
:1008600003F01200F86AD09E078E196AB886A00EAF
:10087000AF6E010EB06EA60EAC6E900EAB6E306A0F
:100880002F6A000E7E6EC190C192C194C1967F6E98
:100890006C6A6B6A6D6A1A6A1B6A1C6A1D6A1E6A38
:1008A0001F6A206A216A226A236A246A256A266AE4
:1008B000276A286A296A2A6A2B6A2C6A2D6A2E6A94
:1008C000DCD41AD61E5203E11D50640803E21E6AEE
:1008D000640E1D6E316A1E5203E11D50315C0DE243
:1008E000040094968B86C80E336E23DE94968B9606
:1008F000C80E336E1EDE312AEED7040E326EFA0EAB
:10090000336E17DE322EFBD7D00EF66E000EF76E6A
:1009100024DEF40E2B6EC00EF21204002AA001D0C9
:100920002DD69EAA67D155D6FA0EF66E000EF76E3A
:10093000100E366E5ADE800E366E570E376E65DE3E
:100940000E0EF66E010EF76E060E366E4EDE800E41
:10095000326ECADE160EF66E010EF76EFEDD1E0E4C
:10096000F66E010EF76E100E366E3FDE9A0E366E84
:10097000570E376E4ADE320EF66E010EF76E060E19
:10098000366E33DE9A0E326EAFDE3A0EF66E010E22
:10099000F76EE3DD800E326E3E0E336ED1DE02C0A6
:1009A00033F001C032F0420EF66E010EF76E120EF9
:1009B000366E1BDE800E366E570E376E26DE580EF4
:1009C000F66E010EF76E160E366E0FDE33C036F081
:1009D000570E376E1ADE32C036F0570E376E15DE00
:1009E0000D0E9EA8FED7AD6E0A0E9EA8FED7AD6E68
:1009F000800E326E3E0E336EA3DE02C033F001C0B5
:100A000032F0760EF66E010EF76E120E366EEDDDDA
:100A1000800E366E570E376EF8DD8C0EF66E010EB8
:100A2000F76E160E366EE1DD33C036F0570E376EB8
:100A3000ECDD32C036F0570E376EE7DD0D0E9EA8A6
:100A4000FED7AD6E0A0E9EA8FED7AD6E800E326E3A
:100A5000060E336E75DE02C033F001C032F0AA0E0E
:100A6000F66E010EF76E120E366EBFDD800E366E1C
:100A7000570E376ECADDC00EF66E010EF76E170EFA
:100A8000366EB3DD33C036F0570E376EBEDD32C082
:100A900036F0570E376EB9DD0D0E9EA8FED7AD6E3F
:100AA0000A0E9EA8FED7AD6E9A0E326E060E336EFB
:100AB00047DE02C033F001C032F0E00EF66E010EE8
:100AC000F76E120E366E91DD9A0E366E570E376E39
:100AD0009CDDF60EF66E010EF76E170E366E85DD96
:100AE00033C036F0570E376E90DD32C036F0570EF9
:100AF000376E8BDD0D0E9EA8FED7AD6E0A0E9EA83A
:100B0000FED7AD6E800E326E050E336E5CDE03C016
:100B100035F002C034F001C033F000C032F0160EE0
:100B2000F66E020EF76E120E366E5FDD800E366EBA
:100B3000570E376E6ADD2C0EF66E020EF76E140E2F
:100B4000366E53DD35C036F0570E376E5EDD34C07D
:100B500036F0570E376E59DD33C036F0570E376E0C
:100B600054DD32C036F0570E376E4FDD0D0E9EA8A5
:100B7000FED7AD6E0A0E9EA8FED7AD6E9A0E326EEF
:100B8000050E336E20DE03C035F002C034F001C024
:100B900033F000C032F0480EF66E020EF76E120E01
:100BA000366E23DD9A0E366E570E376E2EDD5E0ED4
:100BB000F66E020EF76E140E366E17DD35C036F087
:100BC000570E376E22DD34C036F0570E376E1DDDFE
:100BD00033C036F0570E376E18DD32C036F0570E80
:100BE000376E13DD0D0E9EA8FED7AD6E0A0E9EA8C1
:100BF000FED7AD6E2AA202D02A924BDC2AA402D0E4
:080C00002A946BDC8AD6FFD7B1
:0200000400F00A
:0400000000004000BC
:020000040030CA
:0E000000002219180000090003C003E00340AD
:00000001FF
;PIC18F14K22
;CRC=9FDC  CREATED="07-Jan-22 10:21"
