:0400000034EF04F0E5
:08000800046ED8CF05F0E0CF33
:1000100006F00001E9CF0CF0EACF07F0E1CF08F0DD
:10002000E2CF09F0D9CF0AF0DACF0BF0F3CF12F01C
:10003000F4CF13F0FACF14F0F5CF15F0F6CF16F099
:10004000F7CF17F000C00EF001C00FF002C010F0A3
:1000500003C011F09DA230EF00F09EB26AEF00F0F5
:100060009DA636EF00F09EB684EF00F00EC000F0C3
:100070000FC001F010C002F011C003F00CC0E9FF86
:1000800007C0EAFF078E08C0E1FF09C0E2FF0AC00F
:10009000D9FF0BC0DAFF12C0F3FF13C0F4FF14C086
:1000A000FAFF15C0F5FF16C0F6FF17C0F7FF0450A2
:1000B00006C0E0FF05C0D8FF1000F76ACA0FF66E51
:1000C000000EF7220900F5501200362D4A616E2D00
:1000D000323200002B809E9236EF00F05E50BAEF75
:1000E00000F0640E2C6E5D505DC001F0026AC4EF3A
:1000F00000F0C9505DC0C9FFC6889E96C7B0FED744
:10010000016AC5AC012A1200C7BA03D0316AC7B46C
:10011000318E3150312A5B6E5B5080082BE35B508F
:10012000800803E1C9CF5AF006D0C69CC7A0FED70D
:10013000C950C6885A6E5B2C03D05AC02DF01AD015
:100140005B50010817E25B50800814E05B50020826
:1001500003E15AC030F00ED05B5003080BE130C011
:100160005DF05AC05CF02DC05EF030C060F05AC047
:100170005FF0B4D75B507F0817E22DB00FD0D89056
:100180002D305C6E5D6EADD702C02FF001C02EF039
:100190002FC05CF02FC05DF0ACDF05D02EC05CF04E
:1001A0002EC05DF0A6DF2D2A9E9636EF00F02320AC
:1001B00064637377635F6D6F64756C655F766F6C96
:1001C000746167655F63757272656E745F636F7586
:1001D0006E7465720D0A00002320696E6132323838
:1001E0005F696E6974283078383029202E2E2E20D1
:1001F0000000646F6E65210D0A002320696E613274
:1002000032385F72656164313628307834302C4979
:100210004E413232385F5245475F4D46475F494451
:10022000293D30782530346C780D0A002320696E22
:10023000613232385F696E69742830783461292000
:100240002E2E2E200000646F6E65210D0A002320E3
:10025000696E613232385F72656164313628307898
:1002600034612C494E413232385F5245475F4D462A
:10027000475F4944293D30782530346C780D0A00B9
:10028000BA6ABB6AC290000E7E6EC190C192C194E0
:10029000C1967F6E3F0E926E300E776EF19E700E9D
:1002A000936E786AF00E946EEA6A380EE96E000E6C
:1002B00004DF0A000900F550EE6E0009FBE1300E84
:1002C000385C0A0DF3CF29F0300E395C29263B50FB
:1002D0004A080FE13C50410803E1010E286E08D0A6
:1002E0003D504E0803E1060E286E02D0070E286E20
:1002F00037D03B50410809E13C50500803E1040E5F
:10030000286E02D0080E286E2BD03B504D0809E114
:100310003D50520803E1030E286E02D0050E286EF0
:100320001FD03B50460803E1020E286E19D03B5007
:10033000530803E1090E286E13D03B504F0803E128
:100340000A0E286E0DD03B504E0803E10B0E286EAE
:1003500007D03B50440803E10C0E286E01D02868FA
:10036000300E3F5C0A0DF3CF27F0300E405C27269D
:10037000000E0609CA6EF90ECB6E9D8270EF04F076
:10038000416A40C043F03F50D8B440063F06426E39
:10039000425202E1435230E03EC003F03D50E96E6C
:1003A00003C0EAFF3C50036E3B503B2AD8B43C2AC2
:1003B000446E03C045F0F2CF46F0F29E44C0A9FF60
:1003C000A69CA69EA680A85046BEF28EEF6E3EC0AA
:1003D00003F03D50E96E03C0EAFFEFCF42F041C0A9
:1003E00044F042C045F044504518016E01C041F050
:1003F0003D2AD8B43E2AC5D741C001F08BEF02F0A8
:10040000426A41C044F04050D8B441064006436EB1
:10041000435202E144523CE03FC003F03E50E96EDB
:1004200003C0EAFFEFCF43F042C044F043C045F0C1
:1004300044504518016E01C042F03D50036E3C50DF
:100440003C2AD8B43D2A436E03C044F03F50036EAB
:100450003E503E2AD8B43F2AE96E03C0EAFFEFCFF0
:1004600045F0F250006EF29E43C0A9FF45C0A8FFC0
:10047000A69CA69EA6840F01550EA76EAA0EA76E77
:10048000A682A6B2FED7A6940050F2120001B9D7F8
:1004900042C001F058EF02F01B0E3A6E3D6A020EA8
:1004A0003C6E3F6A3AC03EF0416A050E406EA8D7E6
:1004B00001C039F0F250006EF29EA96A39C0A8FF5F
:1004C000A69CA69EA6840F01550EA76EAA0EA76E27
:1004D000A682A6B2FED7A6940050F2120001120026
:1004E000010E2A6E960E2C6E500E1B6E260E1D6E81
:1004F000900E1C6E1F6A050E1E6ECEDF12001B0EC4
:10050000396E3C6A020E3B6E3E6A39C03DF0406A6D
:10051000050E3F6E35D701C038F0F2CF39F0F29EAC
:10052000A96AA69CA69EA680A85039BEF28E385C09
:1005300001E0D6DF71EF04F0EA6A390EE96EEF50A0
:100540000EE0050E016E006A002EFED7012EFBD7CD
:100550002E0E006E002EFED700D0EF2EF2D7120026
:100560000900F5520DE0F6CF38F0F7CF39F0F5502D
:100570009EA8FED7AD6E38C0F6FF39C0F7FFF0D7A2
:1005800012002B902C5203E194968B9603D09496F4
:100590008B862C06243C03D0253C01D003D0242A92
:1005A000D8B4252A332AD8B4342A3350E80812E1C3
:1005B000345003080FE1346A336A322A32503C085F
:1005C00009E1326A223C03D0233C01D003D0222A25
:1005D000D8B4232AA1EF04F09EAAFED7ABCF1AF01D
:1005E000AECF01F01AA202D0AB98AB88A4EF04F012
:1005F000938C938881A8FED781ACFED781BCFCD7B1
:10060000939C8A9C130E006E002EFED700D0196AB0
:10061000F2BE198EF29E39C05DF06BDD19BEF28E0E
:10062000196AF2BE198EF29E3AC05DF062DD19BE03
:10063000F28E3CC03DF0196AF2BE198EF29E3CC0AB
:100640005DF057DD19BEF28E3BC03DF0196AF2BE77
:10065000198EF29E3BC05DF04CDD19BEF28E938C7C
:1006600093883AEF03F038C039F03A6A800E3C6E56
:100670003B6ABED71200080E016E040E006E002EFB
:10068000FED78A9C939C040E006E002EFED73D364A
:100690008A98D8B09388D8A09398938C81ACFED7D1
:1006A000012EEBD7040E006E002EFED78A9C939C81
:1006B00000009388040E006E002EFED7040E006E1C
:1006C000002EFED7938C81ACFED7016A040E006E1B
:1006D000002EFED781B801808A9C939C8A989398BB
:1006E0001200080E3E6E00C03FF09388040E006EAC
:1006F000002EFED7938C81ACFED781B8D88081A81C
:10070000D8900136040E006E002EFED7939C8A9C72
:100710003E2EEBD79388040E006E002EFED78A98EB
:100720003F50D8A493980000938C81ACFED7040E60
:10073000006E002EFED78A9C939C040E006E002E45
:10074000FED78A98939812009388040E006E002EAC
:10075000FED7938C040E006E002EFED78A989398D5
:10076000040E006E002EFED78A9C939C130E006E22
:10077000002EFED700D038C03DF07DDF39C03DF0FF
:100780007ADF9388040E006E002EFED7938C040E41
:10079000006E002EFED781ACFED78A989398040E87
:1007A000006E002EFED78A9C939C130E006E002EC6
:1007B000FED700D0385001093C6E3D6E5CDF010E63
:1007C000006E8FDF3C6A006A8CDF01503C243A6E79
:1007D0003B6A006A86DF3B6A01C03AF093980000EA
:1007E000938C81ACFED7040E006E002EFED700D095
:1007F00000009388040E006E002EFED73AC001F070
:100800003BC002F012000900F6CF3BF0F7CF3CF0FE
:10081000F5509EA8FED7AD6E3BC0F6FF3CC0F7FF7B
:100820003A2EF1D712003BBE10D00F0E006E3A38B0
:1008300000160A0E005C03E2300E002602D03B5088
:10084000002600509EA8FED7AD6E0F0E3A160A0E77
:100850003A5C02E2300E02D03B9E3B503A263A50C0
:100860009EA8FED7AD6E1200F86AD09E078E938CBC
:100870009388340EC86E360EC66EC580C58E1A6A51
:10088000B886A00EAF6E010EB06EA60EAC6E900EC6
:10089000AB6E030E316E366A356A000E7E6EC19005
:1008A000C192C194C1967F6E6C6A6B6A6D6A1B6A55
:1008B0001C6A1D6A1E6A1F6A206A216A226A236AEC
:1008C000246A256A266A276A286A296A2A6A2B6A9C
:1008D0002C6A2E6A2F6A306A326A336A346AD0D43C
:1008E0000ED61F5203E11E50640803E21F6A640E15
:1008F0001E6E376A1F5203E11E50375C0DE2040082
:1009000094968B86C80E396E17DE94968B96C80E19
:10091000396E12DE372AEED7040E386EFA0E396EB3
:100920000BDE382EFBD7AE0EF66E010EF76E18DE1C
:10093000F40E2C6EC00EF2129D8604002BA001D086
:1009400020D69EAA5FD048D6D80EF66E010EF76E5E
:1009500007DE400E386E87DEF20EF66E010EF76E81
:10096000FFDD400E386E3E0E396EEEDE02C039F00D
:1009700001C038F0FA0EF66E010EF76E2A0E3A6ECE
:1009800042DF39C03AF0570E3B6E4DDF38C03AF0C7
:10099000570E3B6E48DF0D0E9EA8FED7AD6E0A0EB9
:1009A0009EA8FED7AD6E2C0EF66E020EF76ED8DD49
:1009B0004A0E386E58DE460EF66E020EF76ED0DD29
:1009C0004A0E386E3E0E396EBFDE02C039F001C0ED
:1009D00038F04E0EF66E020EF76E2A0E3A6E13DFE8
:1009E00039C03AF0570E3B6E1EDF38C03AF0570E52
:1009F0003B6E19DF0D0E9EA8FED7AD6E0A0E9EA8A7
:100A0000FED7AD6E2BA202D02B9246DD2BA402D0D6
:080A10002B9466DD92D7FFD79D
:0200000400F00A
:0400000000004000BC
:020000040030CA
:0E000000002219180000090003C003E00340AD
:00000001FF
;PIC18F14K22
;CRC=08DF  CREATED="06-Jan-22 19:28"
