:0400000058EF05F0C0
:08000800046ED8CF05F0E0CF33
:1000100006F00001E9CF0CF0EACF07F0E1CF08F0DD
:10002000E2CF09F0D9CF0AF0DACF0BF0F3CF12F01C
:10003000F4CF13F0FACF14F0F5CF15F0F6CF16F099
:10004000F7CF17F000C00EF001C00FF002C010F0A3
:1000500003C011F09DA230EF00F09EB25DEF00F002
:100060009DA636EF00F09EB6F3EF00F00EC000F054
:100070000FC001F010C002F011C003F00CC0E9FF86
:1000800007C0EAFF078E08C0E1FF09C0E2FF0AC00F
:10009000D9FF0BC0DAFF12C0F3FF13C0F4FF14C086
:1000A000FAFF15C0F5FF16C0F6FF17C0F7FF0450A2
:1000B00006C0E0FF05C0D8FF10009488889182B880
:1000C000888188B105D066A103D04E2AD8B44F2AC2
:1000D000669188B16681948A889382BA888388B34E
:1000E00005D066A303D0502AD8B4512A669388B3AA
:1000F00066836281642BD8B4652B6451F40804E1F3
:10010000652D02D0628354D06451E80851E16551F5
:1001100003084EE194948B8441C01DF040C01CF054
:100120003FC01BF03EC01AF045C021F044C020F093
:1001300043C01FF042C01EF05FC03BF05EC03AF00B
:1001400049C025F048C024F047C023F046C022F043
:100150004DC029F04CC028F04BC027F04AC026F013
:1001600061C03DF060C03CF04FC02BF04EC02AF0A3
:1001700051C02DF050C02CF02A502E262B502F228B
:10018000000E302231222C5032262D503322000E08
:1001900034223522010E3626D8B0372AD8B4382A70
:1001A000D8B4392A4F6A4E6A516A506A656B646BDB
:1001B00094948B949E9236EF00F08C5130EF01F0C6
:1001C000640E636F8B518BC001F0026A3AEF01F04D
:1001D000C9508BC0C9FFC6889E96C7B0FED7016ABA
:1001E000C5AC012A1200C7BA04D0676BC7A401D0FE
:1001F000678F67C088F067517F0804E0673D01D0D2
:1002000001D0672B885180082BE38851800803E1D7
:10021000C9CF89F006D0C69CC7A0FED7C950C688F2
:10022000896F882D03D089C06BF01AD088510108DE
:1002300017E28851800814E08851020803E189C060
:100240006AF00ED0885103080BE16AC08BF089C0B8
:100250008AF06BC08CF06AC08EF089C08DF0ADD78B
:1002600088517F0817E26BB10FD0D8906B318A6F3D
:100270008B6FA6D702C069F001C068F069C08AF030
:1002800069C08BF0A5DF05D068C08AF068C08BF02C
:100290009FDF6B2B9E9636EF00F02320646373770D
:1002A000635F6D6F64756C655F766F6C74616765B5
:1002B0005F63757272656E745F636F756E7465727D
:1002C0002025730D0A00372D4A616E2D3232000051
:1002D00023204449502053574954434845533A201A
:1002E00025640D0A00002320413A2030782530385B
:1002F0006C78202F2030782530386C78202F2030F3
:10030000782530346C750D0A00002320423A2030E5
:10031000782530386C78202F2030782530386C786C
:10032000202F2030782530346C750D0A00002320F2
:1003300063757272656E742E636F756E745F615F44
:100340006C6173745F7365636F6E643D256C750DCE
:100350000A00232063757272656E742E636F756E6A
:10036000745F625F6C6173745F7365636F6E643D2D
:10037000256C750D0A00232063757272656E742EEC
:10038000636F756E745F615F6C6F6E673D256C7532
:100390000D0A0000232063757272656E742E636F00
:1003A000756E745F625F6C6F6E673D256C750D0ACC
:1003B0000000232063757272656E742E636F756E14
:1003C000745F7365636F6E64735F6C6F6E673D25FA
:1003D0006C750D0A00002320696E707574285049F1
:1003E000435F414444525F4D5342293D25750D0AF8
:1003F00000002320696E707574285049435F4144A2
:1004000044525F4C5342293D25750D0A0000BA6ADB
:10041000BB6AC290000E7E6EC190C192C194C1961B
:100420007F6E3F0E926E300E776EF19E700E936E61
:10043000786AF30E946E000E0609CA6EF90ECB6E42
:100440009D82A1EF05F0EA6A700EE96EEF500EE0B2
:10045000050E016E006A002EFED7012EFBD72E0E70
:10046000006E002EFED700D0EF2EF2D7120009004A
:10047000F6CF71F0F7CF72F0F5509EA8FED7AD6EB3
:1004800071C0F6FF72C0F7FF702FF1D7120009009C
:10049000F5520DE0F6CF6FF0F7CF70F0F5509EA853
:1004A000FED7AD6E6FC0F6FF70C0F7FFF0D7C5EF97
:1004B00005F0080E016E00008B92949200007637D2
:1004C0008B90D8B09480D8A09490948282A2FED7CA
:1004D000012EF1D700008B929492000094800000CE
:1004E0000000948282A2FED7016A000082B00180DF
:1004F0008B9294928B9094901200080E786F00C0AB
:1005000079F094800000948282A2FED782B0D880D5
:1005100082A0D8900136000094928B92782FF1D768
:10052000948000008B907951D8A49490000094821C
:1005300082A2FED700008B92949200008B90949040
:10054000120094800000948200008B909490000030
:100550008B929492130E006E002EFED700D06FC0C7
:1005600076F0A7DF70C076F0A4DF9480000094825C
:10057000000082A2FED78B90949000008B92949200
:10058000130E006E002EFED700D06F510109756F5B
:10059000766F8FDF010E006EB0DF01C075F0010EC7
:1005A000006EABDF01C076F0006AA7DF746B75C028
:1005B00073F076C072F001C071F0949000009482E4
:1005C00082A2FED7000000D000009480000071C01D
:1005D00000F072C001F073C002F074C003F01200AA
:1005E00094800000948200008B90949000008B9285
:1005F0009492130E006E002EFED700D06FC076F0DE
:1006000058DF70C076F055DF9480000094820000BF
:1006100082A2FED78B90949000008B929492130E3E
:10062000006E002EFED700D06F510109736F766FF8
:1006300040DF010E006E61DF01C073F0006A5DDF14
:1006400073C072F001C071F094900000948282A295
:10065000FED7000000D000009480000071C001F0BF
:1006600072C002F012006293800E6F6F050E706F01
:1006700068DF03C041F002C040F001C03FF000C09D
:100680003EF0800E6F6F040E706F5BDF03C045F0AD
:1006900002C044F001C043F000C042F09A0E6F6FF8
:1006A000050E706F4EDF03C049F002C048F001C074
:1006B00047F000C046F09A0E6F6F040E706F41DF76
:1006C00003C04DF002C04CF001C04BF000C04AF036
:1006D000800E6F6F060E706F83DF02C05FF001C087
:1006E0005EF09A0E6F6F060E706F7ADF02C061F0D7
:1006F00001C060F0DDEF05F06291635303E1949671
:100700008B9603D094968B866307E0EF05F09EAA44
:10071000FED7ABCF19F0AECF01F019A202D0AB9843
:10072000AB88E3EF05F0948E000E82AE010E006EF2
:10073000D89000346F6F948C000E82AC010E6F1154
:10074000016EE4EF05F07751016A765D03E276C051
:1007500000F00CD0006A080E786F763700367751BB
:10076000005CD8B0006E0136782FF7D71200200E4B
:1007700071A9300E726F70C000F070AF08D0001E0B
:10078000002A00C070F02D0E726F718F71810150C0
:1007900070C076F0640E776FD6DF00C070F0300E58
:1007A0000124736F70C076F00A0E776FCCDF300EC5
:1007B0000024756F300E0124746F72C000F0300E8B
:1007C000735D04E0718371BF718512D072C073F0E4
:1007D000200E726F300E745D04E0718171BF718301
:1007E00007D0D8A4718104E173C074F0200E736F38
:1007F00071B505D071B307D071B109D00CD0725169
:100800009EA8FED7AD6E73519EA8FED7AD6E7451F3
:100810009EA8FED7AD6E75519EA8FED7AD6EF2EFC5
:1008200005F070BF10D00F0E006E6F3900160A0E63
:10083000005C03E2300E002602D07051002600500A
:100840009EA8FED7AD6E0F0E6F170A0E6F5D02E207
:10085000300E02D0709F70516F276F519EA8FED747
:10086000AD6E1200EACF77F0E9CF76F07039F0097B
:10087000726F7227E20F736F320F756F70510F0B2B
:10088000732773277527E90F746F742774276F39DF
:100890000F0B7427752774377537751F75376F51B0
:1008A0000F0B75277237070E716F0A0E74077527C5
:1008B000FDE373077427FDE372077327FDE37107F8
:1008C0007227FDE3EA6A710EE96E070E7615769DD2
:1008D000E926000EEA22E950750803E1EA5201E137
:1008E000768DEF50006E08E176BD06D076B90CD05B
:1008F00076B702D0200E03D076877699300E002688
:1009000000509EA8FED7AD6EEE5076ADE4D7120033
:10091000D8B203D0EA6A830EE96E006A016A026AFD
:10092000036A836B846B856B866B825181118011A6
:100930007F112CE0200E876FD8907B377C377D3776
:100940007E3783378437853786378251865D08E165
:100950008151855D05E18051845D02E17F51835DB8
:100960000FE37F51835F8051D8A0803D845F815128
:10097000D8A0813D855F8251D8A0823D865FD88016
:100980000036013602360336872FD6D783C0EFFFF5
:1009900084C0ECFF85C0ECFF86C0ECFF1200E9507C
:1009A000736F3B0E7A6F9A0E796FCA0E786F776B02
:1009B0000A0E756FD882EA6A6F0EE96E72C07EF019
:1009C00071C07DF070C07CF06FC07BF07AC082F0A7
:1009D00079C081F078C080F077C07FF099DF015056
:1009E00000520FE17551010A0CE073510BE00F0B3F
:1009F000755D01E00DE273BF0BD073BD03D0200E17
:100A000002D0736B300E002600509EA8FED7AD6E4C
:100A1000D8927AC07EF079C07DF078C07CF077C043
:100A20007BF0826B816B806B0A0E7F6F71DF03C07E
:100A30007AF002C079F001C078F000C077F0752F2D
:100A4000B9D71200015070C076F0640E776F7BDE6C
:100A500000C070F00150300E07E171A30DD071B7E6
:100A60000BD071B9200E03D0719771997181012655
:100A700001509EA8FED7AD6E70C076F00A0E776F5B
:100A800062DE00C070F00150300E06E171B709D08F
:100A900071A107D071B9200E012601509EA8FED782
:100AA000AD6E300E702770519EA8FED7AD6E12004D
:100AB000F86AD09E078E938C9388340EC86E360EDB
:100AC000C66EC580C58E196AB886A00EAF6E010EBF
:100AD000B06EA60EAC6E900EAB6E6D6B6C6B000EB6
:100AE0007E6EC190C192C194C1967F6E6C6A6B6A32
:100AF0006D6A6691669305D04C401A000540670008
:100B00000000000EF86E0A0EF76EF80EF66E090081
:100B1000F550006E000A13E00900F550016EE8BEC2
:100B200005D03F0BEA6E0900F5CFE9FF01BC0900D3
:100B300001AC0900F5CFEEFF004EE9D7F9D7F86A0E
:100B400066D46E6B6E5104080DE3040094968B8698
:100B5000C80E706F78DC94968B96C80E706F73DC3D
:100B60006E2BF0D7040E6F6FFA0E706F6CDC6F2F68
:100B7000FBD79A0EF66E020EF76E270E706F77DCBB
:100B8000C60EF66E020EF76E82D40D0E9EA8FED72C
:100B9000AD6E0A0E9EA8FED7AD6E040E6F6FFA0EF4
:100BA000706F51DC6F2FFBD7F40E636FC00EF21223
:100BB0009D86040062A301D056D562A101D09CD5C8
:100BC0009EAA66D1A4D5AFD501C06FF0D00EF66E47
:100BD000020EF76E100E706F4ADC6FC070F0180EC8
:100BE000716FC5D50D0E9EA8FED7AD6E0A0E9EA8DC
:100BF000FED7AD6EE60EF66E020EF76E070E706F44
:100C000036DC1DC06FF0570E706F0BDE1CC06FF02E
:100C1000570E706F06DE1BC06FF0570E706F01DE4F
:100C20001AC06FF0570E706FFCDDF20EF66E020EFA
:100C3000F76E050E706F1BDC21C06FF0570E706FE2
:100C4000F0DD20C06FF0570E706FEBDD1FC06FF04E
:100C5000570E706FE6DD1EC06FF0570E706FE1DD4E
:100C6000FC0EF66E020EF76E050E706F00DC090EBC
:100C7000E96E3BC070F03AC06FF0F4DD0D0E9EA837
:100C8000FED7AD6E0A0E9EA8FED7AD6E0A0EF66EAA
:100C9000030EF76E070E706F37EC02F025C06FF091
:100CA000570E706FBEDD24C06FF0570E706FB9DD48
:100CB00023C06FF0570E706FB4DD22C06FF0570E77
:100CC000706FAFDD160EF66E030EF76E050E706FC9
:100CD00037EC02F029C06FF0570E706FA2DD28C00C
:100CE0006FF0570E706F9DDD27C06FF0570E706F5D
:100CF00098DD26C06FF0570E706F93DD200EF66EF4
:100D0000030EF76E050E706F37EC02F0090EE96EF8
:100D10003DC070F03CC06FF0A5DD0D0E9EA8FED763
:100D2000AD6E0A0E9EA8FED7AD6E2E0EF66E030EA9
:100D3000F76E1E0E706F37EC02F0100EE96E2BC0CE
:100D400070F02AC06FF08EDD0D0E9EA8FED7AD6E3E
:100D50000A0E9EA8FED7AD6E520EF66E030EF76E0B
:100D60001E0E706F37EC02F0100EE96E2DC070F0A1
:100D70002CC06FF077DD0D0E9EA8FED7AD6E0A0E6B
:100D80009EA8FED7AD6E760EF66E030EF76E170EAA
:100D9000706F37EC02F0410EE96E31C072F030C076
:100DA00071F02FC070F02EC06FF0F9DD0D0E9EA80F
:100DB000FED7AD6E0A0E9EA8FED7AD6E940EF66EEF
:100DC000030EF76E170E706F37EC02F0410EE96EEE
:100DD00035C072F034C071F033C070F032C06FF0C3
:100DE000DEDD0D0E9EA8FED7AD6E0A0E9EA8FED7C4
:100DF000AD6EB20EF66E030EF76E1D0E706F37EC11
:100E000002F0410EE96E39C072F038C071F037C09F
:100E100070F036C06FF0C3DD0D0E9EA8FED7AD6E2C
:100E20000A0E9EA8FED7AD6E948C000E82BC010EF9
:100E30006F6FD60EF66E030EF76E160E706F37ECF0
:100E400002F06FC070F01B0E716FFCDD0D0E9EA8DE
:100E5000FED7AD6E0A0E9EA8FED7AD6E948E000E24
:100E600082BE010E6F6FF20EF66E030EF76E160E57
:100E7000706F37EC02F06FC070F01B0E716FE2DD27
:100E80000D0E9EA8FED7AD6E0A0E9EA8FED7AD6EC3
:040E900090D6FFD722
:0200000400F00A
:0400000000004000BC
:020000040030CA
:0E000000002219180000090003C003E00340AD
:00000001FF
;PIC18F14K22
;CRC=4EBF  CREATED="07-Jan-22 18:52"
